{
  "contractName": "Election",
  "abi": [
    {
      "inputs": [
        {
          "internalType": "address",
          "name": "ownerAddress",
          "type": "address"
        },
        {
          "internalType": "string",
          "name": "name",
          "type": "string"
        },
        {
          "internalType": "string",
          "name": "description",
          "type": "string"
        }
      ],
      "payable": false,
      "stateMutability": "nonpayable",
      "type": "constructor"
    },
    {
      "anonymous": false,
      "inputs": [
        {
          "indexed": false,
          "internalType": "string",
          "name": "candidateName",
          "type": "string"
        }
      ],
      "name": "candidateAdded",
      "type": "event"
    },
    {
      "anonymous": false,
      "inputs": [
        {
          "indexed": false,
          "internalType": "address",
          "name": "voter",
          "type": "address"
        }
      ],
      "name": "voteDone",
      "type": "event"
    },
    {
      "anonymous": false,
      "inputs": [
        {
          "indexed": false,
          "internalType": "string",
          "name": "finalWinner",
          "type": "string"
        }
      ],
      "name": "voteEnded",
      "type": "event"
    },
    {
      "anonymous": false,
      "inputs": [],
      "name": "voteStarted",
      "type": "event"
    },
    {
      "anonymous": false,
      "inputs": [
        {
          "indexed": false,
          "internalType": "address",
          "name": "voter",
          "type": "address"
        }
      ],
      "name": "voterRegistered",
      "type": "event"
    },
    {
      "constant": true,
      "inputs": [
        {
          "internalType": "uint256",
          "name": "",
          "type": "uint256"
        }
      ],
      "name": "candidates",
      "outputs": [
        {
          "internalType": "uint256",
          "name": "id",
          "type": "uint256"
        },
        {
          "internalType": "string",
          "name": "name",
          "type": "string"
        },
        {
          "internalType": "uint256",
          "name": "voteCount",
          "type": "uint256"
        }
      ],
      "payable": false,
      "stateMutability": "view",
      "type": "function"
    },
    {
      "constant": true,
      "inputs": [],
      "name": "candidatesCount",
      "outputs": [
        {
          "internalType": "uint256",
          "name": "",
          "type": "uint256"
        }
      ],
      "payable": false,
      "stateMutability": "view",
      "type": "function"
    },
    {
      "constant": true,
      "inputs": [],
      "name": "electionDescription",
      "outputs": [
        {
          "internalType": "string",
          "name": "",
          "type": "string"
        }
      ],
      "payable": false,
      "stateMutability": "view",
      "type": "function"
    },
    {
      "constant": true,
      "inputs": [],
      "name": "electionOfficialName",
      "outputs": [
        {
          "internalType": "string",
          "name": "",
          "type": "string"
        }
      ],
      "payable": false,
      "stateMutability": "view",
      "type": "function"
    },
    {
      "constant": true,
      "inputs": [],
      "name": "electionOwnerAddress",
      "outputs": [
        {
          "internalType": "address",
          "name": "",
          "type": "address"
        }
      ],
      "payable": false,
      "stateMutability": "view",
      "type": "function"
    },
    {
      "constant": true,
      "inputs": [],
      "name": "electionState",
      "outputs": [
        {
          "internalType": "enum Election.State",
          "name": "",
          "type": "uint8"
        }
      ],
      "payable": false,
      "stateMutability": "view",
      "type": "function"
    },
    {
      "constant": true,
      "inputs": [],
      "name": "finalWinner",
      "outputs": [
        {
          "internalType": "string",
          "name": "",
          "type": "string"
        }
      ],
      "payable": false,
      "stateMutability": "view",
      "type": "function"
    },
    {
      "constant": true,
      "inputs": [],
      "name": "totalVoteCount",
      "outputs": [
        {
          "internalType": "uint256",
          "name": "",
          "type": "uint256"
        }
      ],
      "payable": false,
      "stateMutability": "view",
      "type": "function"
    },
    {
      "constant": true,
      "inputs": [],
      "name": "totalVoterCount",
      "outputs": [
        {
          "internalType": "uint256",
          "name": "",
          "type": "uint256"
        }
      ],
      "payable": false,
      "stateMutability": "view",
      "type": "function"
    },
    {
      "constant": true,
      "inputs": [
        {
          "internalType": "address",
          "name": "",
          "type": "address"
        }
      ],
      "name": "voterRegister",
      "outputs": [
        {
          "internalType": "string",
          "name": "voterName",
          "type": "string"
        },
        {
          "internalType": "address",
          "name": "voterAddress",
          "type": "address"
        },
        {
          "internalType": "bool",
          "name": "voted",
          "type": "bool"
        },
        {
          "internalType": "uint256",
          "name": "choice",
          "type": "uint256"
        }
      ],
      "payable": false,
      "stateMutability": "view",
      "type": "function"
    },
    {
      "constant": true,
      "inputs": [],
      "name": "getElectionState",
      "outputs": [
        {
          "internalType": "enum Election.State",
          "name": "",
          "type": "uint8"
        }
      ],
      "payable": false,
      "stateMutability": "view",
      "type": "function"
    },
    {
      "constant": false,
      "inputs": [
        {
          "internalType": "string",
          "name": "candidateName",
          "type": "string"
        }
      ],
      "name": "addCandidate",
      "outputs": [],
      "payable": false,
      "stateMutability": "nonpayable",
      "type": "function"
    },
    {
      "constant": false,
      "inputs": [
        {
          "internalType": "address",
          "name": "voterAddress",
          "type": "address"
        },
        {
          "internalType": "string",
          "name": "voterName",
          "type": "string"
        }
      ],
      "name": "joinVote",
      "outputs": [],
      "payable": false,
      "stateMutability": "nonpayable",
      "type": "function"
    },
    {
      "constant": false,
      "inputs": [],
      "name": "startVote",
      "outputs": [],
      "payable": false,
      "stateMutability": "nonpayable",
      "type": "function"
    },
    {
      "constant": false,
      "inputs": [
        {
          "internalType": "uint256",
          "name": "candidateId",
          "type": "uint256"
        }
      ],
      "name": "doVote",
      "outputs": [],
      "payable": false,
      "stateMutability": "nonpayable",
      "type": "function"
    },
    {
      "constant": false,
      "inputs": [],
      "name": "endVote",
      "outputs": [],
      "payable": false,
      "stateMutability": "nonpayable",
      "type": "function"
    }
  ],
  "bytecode": "0x60806040526000600255600060035560006004556000600a553480156200002557600080fd5b5060405162001c5038038062001c5083398181016040526200004b91908101906200020e565b82600560006101000a81548173ffffffffffffffffffffffffffffffffffffffff021916908373ffffffffffffffffffffffffffffffffffffffff1602179055508160069080519060200190620000a4929190620000ec565b508060079080519060200190620000bd929190620000ec565b506000600860006101000a81548160ff02191690836002811115620000de57fe5b021790555050505062000375565b828054600181600116156101000203166002900490600052602060002090601f016020900481019282601f106200012f57805160ff191683800117855562000160565b8280016001018555821562000160579182015b828111156200015f57825182559160200191906001019062000142565b5b5090506200016f919062000173565b5090565b6200019891905b80821115620001945760008160009055506001016200017a565b5090565b90565b600081519050620001ac816200035b565b92915050565b600082601f830112620001c457600080fd5b8151620001db620001d582620002c4565b62000296565b91508082526020830160208301858383011115620001f857600080fd5b6200020583828462000325565b50505092915050565b6000806000606084860312156200022457600080fd5b600062000234868287016200019b565b935050602084015167ffffffffffffffff8111156200025257600080fd5b6200026086828701620001b2565b925050604084015167ffffffffffffffff8111156200027e57600080fd5b6200028c86828701620001b2565b9150509250925092565b6000604051905081810181811067ffffffffffffffff82111715620002ba57600080fd5b8060405250919050565b600067ffffffffffffffff821115620002dc57600080fd5b601f19601f8301169050602081019050919050565b6000620002fe8262000305565b9050919050565b600073ffffffffffffffffffffffffffffffffffffffff82169050919050565b60005b838110156200034557808201518184015260208101905062000328565b8381111562000355576000848401525b50505050565b6200036681620002f1565b81146200037257600080fd5b50565b6118cb80620003856000396000f3fe608060405234801561001057600080fd5b50600436106101005760003560e01c80636f71e06511610097578063af15408711610066578063af15408714610269578063b6d9ecec1461029c578063b9223946146102b8578063f869809c146102c257610100565b80636f71e065146101f157806377ee8e591461020f57806387cd8cf81461022d578063893d8f4c1461024b57610100565b80633477ee2e116100d35780633477ee2e1461017b578063462e91ec146101ad57806349a2b603146101c95780634c0a6af0146101e757610100565b8063124258c6146101055780631e0419d4146101215780632280043d1461013f5780632d35a8a21461015d575b600080fd5b61011f600480360361011a91908101906112d1565b6102e0565b005b610129610567565b6040516101369190611557565b60405180910390f35b610147610605565b604051610154919061153c565b60405180910390f35b610165610618565b6040516101729190611669565b60405180910390f35b610195600480360361019091908101906112d1565b61061e565b6040516101a493929190611684565b60405180910390f35b6101c760048036036101c29190810190611290565b6106e0565b005b6101d161088c565b6040516101de9190611557565b60405180910390f35b6101ef61092a565b005b6101f9610a76565b6040516102069190611669565b60405180910390f35b610217610a7c565b6040516102249190611557565b60405180910390f35b610235610b1a565b6040516102429190611506565b60405180910390f35b610253610b40565b6040516102609190611669565b60405180910390f35b610283600480360361027e9190810190611213565b610b46565b604051610293949392919061159b565b60405180910390f35b6102b660048036036102b1919081019061123c565b610c3b565b005b6102c0610e29565b005b6102ca611012565b6040516102d7919061153c565b60405180910390f35b60018060028111156102ee57fe5b600860009054906101000a900460ff16600281111561030957fe5b14610349576040517f08c379a000000000000000000000000000000000000000000000000000000000815260040161034090611609565b60405180910390fd5b6000600160003373ffffffffffffffffffffffffffffffffffffffff1673ffffffffffffffffffffffffffffffffffffffff168152602001908152602001600020600001805460018160011615610100020316600290049050141580156103fd5750600160003373ffffffffffffffffffffffffffffffffffffffff1673ffffffffffffffffffffffffffffffffffffffff16815260200190815260200160002060010160149054906101000a900460ff16155b61043c576040517f08c379a000000000000000000000000000000000000000000000000000000000815260040161043390611649565b60405180910390fd5b60018060003373ffffffffffffffffffffffffffffffffffffffff1673ffffffffffffffffffffffffffffffffffffffff16815260200190815260200160002060010160146101000a81548160ff02191690831515021790555081600160003373ffffffffffffffffffffffffffffffffffffffff1673ffffffffffffffffffffffffffffffffffffffff168152602001908152602001600020600201819055506000821180156104ef57506002548211155b1561051a57600080838152602001908152602001600020600201600081548092919060010191905055505b6004600081548092919060010191905055507f55c65cf9526efdf6c2252fe9757889dbd93e10172cad0f2edb1df619c88dbf7d3360405161055b9190611521565b60405180910390a15050565b60098054600181600116156101000203166002900480601f0160208091040260200160405190810160405280929190818152602001828054600181600116156101000203166002900480156105fd5780601f106105d2576101008083540402835291602001916105fd565b820191906000526020600020905b8154815290600101906020018083116105e057829003601f168201915b505050505081565b600860009054906101000a900460ff1681565b60025481565b6000602052806000526040600020600091509050806000015490806001018054600181600116156101000203166002900480601f0160208091040260200160405190810160405280929190818152602001828054600181600116156101000203166002900480156106d05780601f106106a5576101008083540402835291602001916106d0565b820191906000526020600020905b8154815290600101906020018083116106b357829003601f168201915b5050505050908060020154905083565b60008060028111156106ee57fe5b600860009054906101000a900460ff16600281111561070957fe5b14610749576040517f08c379a000000000000000000000000000000000000000000000000000000000815260040161074090611609565b60405180910390fd5b600560009054906101000a900473ffffffffffffffffffffffffffffffffffffffff1673ffffffffffffffffffffffffffffffffffffffff163373ffffffffffffffffffffffffffffffffffffffff16146107d9576040517f08c379a00000000000000000000000000000000000000000000000000000000081526004016107d090611629565b60405180910390fd5b6002600081548092919060010191905055506040518060600160405280600254815260200183815260200160008152506000806002548152602001908152602001600020600082015181600001556020820151816001019080519060200190610843929190611029565b50604082015181600201559050507f1a988ca577cdc159fc214387856e8cfb16754d59464ba15a6fb93f6ec30c9a7a826040516108809190611579565b60405180910390a15050565b60078054600181600116156101000203166002900480601f0160208091040260200160405190810160405280929190818152602001828054600181600116156101000203166002900480156109225780601f106108f757610100808354040283529160200191610922565b820191906000526020600020905b81548152906001019060200180831161090557829003601f168201915b505050505081565b600080600281111561093857fe5b600860009054906101000a900460ff16600281111561095357fe5b14610993576040517f08c379a000000000000000000000000000000000000000000000000000000000815260040161098a90611609565b60405180910390fd5b600560009054906101000a900473ffffffffffffffffffffffffffffffffffffffff1673ffffffffffffffffffffffffffffffffffffffff163373ffffffffffffffffffffffffffffffffffffffff1614610a23576040517f08c379a0000000000000000000000000000000000000000000000000000000008152600401610a1a90611629565b60405180910390fd5b6001600860006101000a81548160ff02191690836002811115610a4257fe5b02179055507fd0dc01800a369fef30d3fced5275b8b916549867622e79efca5245c479fda4ea60405160405180910390a150565b60035481565b60068054600181600116156101000203166002900480601f016020809104026020016040519081016040528092919081815260200182805460018160011615610100020316600290048015610b125780601f10610ae757610100808354040283529160200191610b12565b820191906000526020600020905b815481529060010190602001808311610af557829003601f168201915b505050505081565b600560009054906101000a900473ffffffffffffffffffffffffffffffffffffffff1681565b60045481565b6001602052806000526040600020600091509050806000018054600181600116156101000203166002900480601f016020809104026020016040519081016040528092919081815260200182805460018160011615610100020316600290048015610bf25780601f10610bc757610100808354040283529160200191610bf2565b820191906000526020600020905b815481529060010190602001808311610bd557829003601f168201915b5050505050908060010160009054906101000a900473ffffffffffffffffffffffffffffffffffffffff16908060010160149054906101000a900460ff16908060020154905084565b6000806002811115610c4957fe5b600860009054906101000a900460ff166002811115610c6457fe5b14610ca4576040517f08c379a0000000000000000000000000000000000000000000000000000000008152600401610c9b90611609565b60405180910390fd5b610cac6110a9565b82816000018190525083816020019073ffffffffffffffffffffffffffffffffffffffff16908173ffffffffffffffffffffffffffffffffffffffff16815250506000816040019015159081151581525050600081606001818152505080600160008673ffffffffffffffffffffffffffffffffffffffff1673ffffffffffffffffffffffffffffffffffffffff1681526020019081526020016000206000820151816000019080519060200190610d65929190611029565b5060208201518160010160006101000a81548173ffffffffffffffffffffffffffffffffffffffff021916908373ffffffffffffffffffffffffffffffffffffffff16021790555060408201518160010160146101000a81548160ff021916908315150217905550606082015181600201559050506003600081548092919060010191905055507f387e3d20b36ce3254acb134e913909d19062c2c475ffa1734569bc795869da1084604051610e1b9190611506565b60405180910390a150505050565b6001806002811115610e3757fe5b600860009054906101000a900460ff166002811115610e5257fe5b14610e92576040517f08c379a0000000000000000000000000000000000000000000000000000000008152600401610e8990611609565b60405180910390fd5b600560009054906101000a900473ffffffffffffffffffffffffffffffffffffffff1673ffffffffffffffffffffffffffffffffffffffff163373ffffffffffffffffffffffffffffffffffffffff1614610f22576040517f08c379a0000000000000000000000000000000000000000000000000000000008152600401610f1990611629565b60405180910390fd5b6002600860006101000a81548160ff02191690836002811115610f4157fe5b02179055506000600190505b6002548111610fd657600a54600080838152602001908152602001600020600201541115610fc95760008082815260200190815260200160002060020154600a8190555060008082815260200190815260200160002060010160099080546001816001161561010002031660029004610fc79291906110e9565b505b8080600101915050610f4d565b507f1c9db16d4f54d3a4e1f06123c554022a9f3f0357d24c7de3780857ddc4de9244600960405161100791906115e7565b60405180910390a150565b6000600860009054906101000a900460ff16905090565b828054600181600116156101000203166002900490600052602060002090601f016020900481019282601f1061106a57805160ff1916838001178555611098565b82800160010185558215611098579182015b8281111561109757825182559160200191906001019061107c565b5b5090506110a59190611170565b5090565b604051806080016040528060608152602001600073ffffffffffffffffffffffffffffffffffffffff168152602001600015158152602001600081525090565b828054600181600116156101000203166002900490600052602060002090601f016020900481019282601f10611122578054855561115f565b8280016001018555821561115f57600052602060002091601f016020900482015b8281111561115e578254825591600101919060010190611143565b5b50905061116c9190611170565b5090565b61119291905b8082111561118e576000816000905550600101611176565b5090565b90565b6000813590506111a48161185a565b92915050565b600082601f8301126111bb57600080fd5b81356111ce6111c9826116ef565b6116c2565b915080825260208301602083018583830111156111ea57600080fd5b6111f58382846117fa565b50505092915050565b60008135905061120d81611871565b92915050565b60006020828403121561122557600080fd5b600061123384828501611195565b91505092915050565b6000806040838503121561124f57600080fd5b600061125d85828601611195565b925050602083013567ffffffffffffffff81111561127a57600080fd5b611286858286016111aa565b9150509250929050565b6000602082840312156112a257600080fd5b600082013567ffffffffffffffff8111156112bc57600080fd5b6112c8848285016111aa565b91505092915050565b6000602082840312156112e357600080fd5b60006112f1848285016111fe565b91505092915050565b611303816117b2565b82525050565b61131281611757565b82525050565b61132181611769565b82525050565b611330816117c4565b82525050565b60006113418261173b565b61134b8185611746565b935061135b818560208601611809565b6113648161183c565b840191505092915050565b600061137a82611730565b6113848185611746565b9350611394818560208601611809565b61139d8161183c565b840191505092915050565b6000815460018116600081146113c557600181146113eb5761142f565b607f60028304166113d68187611746565b955060ff19831686526020860193505061142f565b600282046113f98187611746565b95506114048561171b565b60005b8281101561142657815481890152600182019150602081019050611407565b80880195505050505b505092915050565b6000611444600e83611746565b91507f56616c69646174652073746174650000000000000000000000000000000000006000830152602082019050919050565b6000611484601583611746565b91507f4f6e6c79204f776e6572206861732061636365737300000000000000000000006000830152602082019050919050565b60006114c4601883611746565b91507f4f6e6c79205265676973746572206861732061636365737300000000000000006000830152602082019050919050565b611500816117a8565b82525050565b600060208201905061151b6000830184611309565b92915050565b600060208201905061153660008301846112fa565b92915050565b60006020820190506115516000830184611327565b92915050565b60006020820190508181036000830152611571818461136f565b905092915050565b600060208201905081810360008301526115938184611336565b905092915050565b600060808201905081810360008301526115b5818761136f565b90506115c46020830186611309565b6115d16040830185611318565b6115de60608301846114f7565b95945050505050565b6000602082019050818103600083015261160181846113a8565b905092915050565b6000602082019050818103600083015261162281611437565b9050919050565b6000602082019050818103600083015261164281611477565b9050919050565b60006020820190508181036000830152611662816114b7565b9050919050565b600060208201905061167e60008301846114f7565b92915050565b600060608201905061169960008301866114f7565b81810360208301526116ab818561136f565b90506116ba60408301846114f7565b949350505050565b6000604051905081810181811067ffffffffffffffff821117156116e557600080fd5b8060405250919050565b600067ffffffffffffffff82111561170657600080fd5b601f19601f8301169050602081019050919050565b60008190508160005260206000209050919050565b600081519050919050565b600081519050919050565b600082825260208201905092915050565b600061176282611788565b9050919050565b60008115159050919050565b60008190506117838261184d565b919050565b600073ffffffffffffffffffffffffffffffffffffffff82169050919050565b6000819050919050565b60006117bd826117d6565b9050919050565b60006117cf82611775565b9050919050565b60006117e1826117e8565b9050919050565b60006117f382611788565b9050919050565b82818337600083830152505050565b60005b8381101561182757808201518184015260208101905061180c565b83811115611836576000848401525b50505050565b6000601f19601f8301169050919050565b6003811061185757fe5b50565b61186381611757565b811461186e57600080fd5b50565b61187a816117a8565b811461188557600080fd5b5056fea365627a7a72315820c06add9e20b23f2ac37df61d04693cb07d0cad6924dee46c73ac7c2f4dcd9dcd6c6578706572696d656e74616cf564736f6c63430005100040",
  "source": "// SPDX-License-Identifier: MIT\npragma solidity >=0.4.21 <0.7.0;\npragma experimental ABIEncoderV2;\n\ncontract ElectionFactory {\n    Election[] public contractList;\n    uint256 public contractsCount = 0;\n\n    function addContract(string memory name, string memory description)\n        public\n    {\n        contractsCount++;\n        Election newContract = new Election(msg.sender, name, description);\n        contractList.push(newContract);\n    }\n\n    function getContractList() public view returns (Election[] memory){\n        return contractList;\n    }\n}\n\ncontract Election {\n    enum State {Created, Voting, Ended}\n    struct Candidate {\n        uint256 id;\n        string name;\n        uint256 voteCount;\n    }\n    // struct Vote {\n    //     address voterAddress;\n    //     uint256 choice;\n    // }\n    struct Voter {\n        string voterName;\n        address voterAddress;\n        bool voted;\n        uint256 choice;\n    }\n\n    // Store accounts that have voted\n    mapping(uint256 => Candidate) public candidates;\n    // mapping(uint256 => Vote) private votes;\n    mapping(address => Voter) public voterRegister;\n    uint256 public candidatesCount = 0;\n    uint256 public totalVoterCount = 0;\n    uint256 public totalVoteCount = 0;\n    address public electionOwnerAddress;\n    string public electionOfficialName;\n    string public electionDescription;\n    State public electionState;\n    string public finalWinner;\n    uint256 highest = 0;\n\n    //constructor\n    constructor(address ownerAddress, string memory name, string memory description) public {\n        // addCandidate(\"Trump\");\n        //addCandidate(\"Bidden\");\n        electionOwnerAddress = ownerAddress;\n        electionOfficialName = name;\n        electionDescription = description;\n        electionState = State.Created;\n    }\n\n    modifier onlyOwner() {\n        require(msg.sender == electionOwnerAddress, \"Only Owner has access\");\n        _;\n    }\n    modifier inState(State st) {\n        require(electionState == st, \"Validate state\");\n        _;\n    }\n    modifier onlyRegister() {\n        require(\n            bytes(voterRegister[msg.sender].voterName).length != 0 &&\n            !voterRegister[msg.sender].voted, \"Only Register has access\");\n        _;\n    }\n    function getElectionState() public view returns (State){\n        return electionState;\n    }\n\n    // event\n    //event votedEvent(uint256 indexed _candidateId);\n    event candidateAdded(string candidateName);\n    event voterRegistered(address voter);\n    event voteStarted();\n    event voteEnded(string finalWinner);\n    event voteDone(address voter);\n\n    function addCandidate(string memory candidateName)\n        public\n        inState(State.Created)\n        onlyOwner\n    {\n        candidatesCount++;\n        candidates[candidatesCount] = Candidate(\n            candidatesCount,\n            candidateName,\n            0\n        );\n\n        emit candidateAdded(candidateName);\n    }\n\n    function joinVote(address voterAddress, string memory voterName)\n        public\n        inState(State.Created)\n    {\n        Voter memory voter;\n        voter.voterName = voterName;\n        voter.voterAddress = voterAddress;\n        voter.voted = false;\n        voter.choice = 0;\n        voterRegister[voterAddress] = voter;\n        totalVoterCount++;\n        emit voterRegistered(voterAddress);\n    }\n\n    function startVote() public inState(State.Created) onlyOwner {\n        electionState = State.Voting;\n        emit voteStarted();\n    }\n\n    function doVote(uint256 candidateId)\n        public\n        inState(State.Voting)\n        onlyRegister\n    {\n        voterRegister[msg.sender].voted = true;\n        voterRegister[msg.sender].choice = candidateId;\n        if (candidateId > 0 && candidateId <= candidatesCount) {\n            candidates[candidateId].voteCount++;\n        }\n        totalVoteCount++;\n        emit voteDone(msg.sender);\n    }\n\n    function endVote() public inState(State.Voting) onlyOwner {\n        electionState = State.Ended;\n        for (uint256 i = 1; i <= candidatesCount; i++) {\n            if(candidates[i].voteCount > highest){\n                highest = candidates[i].voteCount;\n                finalWinner = candidates[i].name;\n            }\n        }\n        emit voteEnded(finalWinner);\n    }\n}\n",
  "sourcePath": "/home/ichi/Documents/development/smart-contract/votingdapp/dapp-voting/contracts/Election.sol",
  "compiler": {
    "name": "solc",
    "version": "0.5.16+commit.9c3226ce.Emscripten.clang"
  },
  "schemaVersion": "3.0.23",
  "updatedAt": "2020-09-01T00:54:36.224Z",
  "devdoc": {
    "methods": {}
  },
  "userdoc": {
    "methods": {}
  }
}