{
  "contractName": "Factory",
  "abi": [
    {
      "constant": true,
      "inputs": [
        {
          "internalType": "uint256",
          "name": "",
          "type": "uint256"
        }
      ],
      "name": "contractList",
      "outputs": [
        {
          "internalType": "contract Election",
          "name": "",
          "type": "address"
        }
      ],
      "payable": false,
      "stateMutability": "view",
      "type": "function"
    },
    {
      "constant": true,
      "inputs": [],
      "name": "contractsCount",
      "outputs": [
        {
          "internalType": "uint256",
          "name": "",
          "type": "uint256"
        }
      ],
      "payable": false,
      "stateMutability": "view",
      "type": "function"
    },
    {
      "constant": false,
      "inputs": [
        {
          "internalType": "string",
          "name": "name",
          "type": "string"
        },
        {
          "internalType": "string",
          "name": "description",
          "type": "string"
        }
      ],
      "name": "addContract",
      "outputs": [],
      "payable": false,
      "stateMutability": "nonpayable",
      "type": "function"
    },
    {
      "constant": true,
      "inputs": [],
      "name": "getContractList",
      "outputs": [
        {
          "internalType": "contract Election[]",
          "name": "",
          "type": "address[]"
        }
      ],
      "payable": false,
      "stateMutability": "view",
      "type": "function"
    }
  ],
  "bytecode": "0x6080604052600060015534801561001557600080fd5b506122c9806100256000396000f3fe60806040523480156200001157600080fd5b5060043610620000525760003560e01c80634906175714620000575780636a5bb5d8146200007757806399acac8c14620000ad578063c4fecdb614620000cf575b600080fd5b6200007560048036036200006f919081019062000301565b620000f1565b005b6200009560048036036200008f919081019062000374565b620001ad565b604051620000a49190620004bc565b60405180910390f35b620000b7620001ea565b604051620000c6919062000498565b60405180910390f35b620000d96200027a565b604051620000e8919062000514565b60405180910390f35b60016000815480929190600101919050555060008282604051620001159062000280565b62000122929190620004d9565b604051809103906000f0801580156200013f573d6000803e3d6000fd5b50905060008190806001815401808255809150509060018203906000526020600020016000909192909190916101000a81548173ffffffffffffffffffffffffffffffffffffffff021916908373ffffffffffffffffffffffffffffffffffffffff16021790555050505050565b60008181548110620001bb57fe5b906000526020600020016000915054906101000a900473ffffffffffffffffffffffffffffffffffffffff1681565b606060008054806020026020016040519081016040528092919081815260200182805480156200027057602002820191906000526020600020905b8160009054906101000a900473ffffffffffffffffffffffffffffffffffffffff1673ffffffffffffffffffffffffffffffffffffffff168152602001906001019080831162000225575b5050505050905090565b60015481565b611be380620006a483390190565b600082601f830112620002a057600080fd5b8135620002b7620002b1826200055f565b62000531565b91508082526020830160208301858383011115620002d457600080fd5b620002e183828462000633565b50505092915050565b600081359050620002fb8162000689565b92915050565b600080604083850312156200031557600080fd5b600083013567ffffffffffffffff8111156200033057600080fd5b6200033e858286016200028e565b925050602083013567ffffffffffffffff8111156200035c57600080fd5b6200036a858286016200028e565b9150509250929050565b6000602082840312156200038757600080fd5b60006200039784828501620002ea565b91505092915050565b6000620003ae838362000424565b60208301905092915050565b6000620003c7826200059c565b620003d38185620005bf565b9350620003e0836200058c565b8060005b8381101562000417578151620003fb8882620003a0565b97506200040883620005b2565b925050600181019050620003e4565b5085935050505092915050565b6200042f816200060b565b82525050565b62000440816200060b565b82525050565b60006200045382620005a7565b6200045f8185620005d0565b93506200047181856020860162000642565b6200047c8162000678565b840191505092915050565b620004928162000601565b82525050565b60006020820190508181036000830152620004b48184620003ba565b905092915050565b6000602082019050620004d3600083018462000435565b92915050565b60006040820190508181036000830152620004f5818562000446565b905081810360208301526200050b818462000446565b90509392505050565b60006020820190506200052b600083018462000487565b92915050565b6000604051905081810181811067ffffffffffffffff821117156200055557600080fd5b8060405250919050565b600067ffffffffffffffff8211156200057757600080fd5b601f19601f8301169050602081019050919050565b6000819050602082019050919050565b600081519050919050565b600081519050919050565b6000602082019050919050565b600082825260208201905092915050565b600082825260208201905092915050565b600073ffffffffffffffffffffffffffffffffffffffff82169050919050565b6000819050919050565b600062000618826200061f565b9050919050565b60006200062c82620005e1565b9050919050565b82818337600083830152505050565b60005b838110156200066257808201518184015260208101905062000645565b8381111562000672576000848401525b50505050565b6000601f19601f8301169050919050565b620006948162000601565b8114620006a057600080fd5b5056fe60806040526000600255600060035560006004556040518060400160405280600281526020017f7171000000000000000000000000000000000000000000000000000000000000815250600990805190602001906200006092919062000139565b506000600a553480156200007357600080fd5b5060405162001be338038062001be3833981810160405262000099919081019062000244565b33600560006101000a81548173ffffffffffffffffffffffffffffffffffffffff021916908373ffffffffffffffffffffffffffffffffffffffff1602179055508160069080519060200190620000f292919062000139565b5080600790805190602001906200010b92919062000139565b506000600860006101000a81548160ff021916908360028111156200012c57fe5b0217905550505062000348565b828054600181600116156101000203166002900490600052602060002090601f016020900481019282601f106200017c57805160ff1916838001178555620001ad565b82800160010185558215620001ad579182015b82811115620001ac5782518255916020019190600101906200018f565b5b509050620001bc9190620001c0565b5090565b620001e591905b80821115620001e1576000816000905550600101620001c7565b5090565b90565b600082601f830112620001fa57600080fd5b8151620002116200020b82620002e5565b620002b7565b915080825260208301602083018583830111156200022e57600080fd5b6200023b83828462000312565b50505092915050565b600080604083850312156200025857600080fd5b600083015167ffffffffffffffff8111156200027357600080fd5b6200028185828601620001e8565b925050602083015167ffffffffffffffff8111156200029f57600080fd5b620002ad85828601620001e8565b9150509250929050565b6000604051905081810181811067ffffffffffffffff82111715620002db57600080fd5b8060405250919050565b600067ffffffffffffffff821115620002fd57600080fd5b601f19601f8301169050602081019050919050565b60005b838110156200033257808201518184015260208101905062000315565b8381111562000342576000848401525b50505050565b61188b80620003586000396000f3fe608060405234801561001057600080fd5b50600436106100f55760003560e01c80634c0a6af011610097578063893d8f4c11610066578063893d8f4c14610240578063af1540871461025e578063b6d9ecec14610291578063b9223946146102ad576100f5565b80634c0a6af0146101dc5780636f71e065146101e657806377ee8e591461020457806387cd8cf814610222576100f5565b80632d35a8a2116100d35780632d35a8a2146101525780633477ee2e14610170578063462e91ec146101a257806349a2b603146101be576100f5565b8063124258c6146100fa5780631e0419d4146101165780632280043d14610134575b600080fd5b610114600480360361010f9190810190611291565b6102b7565b005b61011e61053e565b60405161012b9190611517565b60405180910390f35b61013c6105dc565b60405161014991906114fc565b60405180910390f35b61015a6105ef565b6040516101679190611629565b60405180910390f35b61018a60048036036101859190810190611291565b6105f5565b60405161019993929190611644565b60405180910390f35b6101bc60048036036101b79190810190611250565b6106b7565b005b6101c6610863565b6040516101d39190611517565b60405180910390f35b6101e4610901565b005b6101ee610a4d565b6040516101fb9190611629565b60405180910390f35b61020c610a53565b6040516102199190611517565b60405180910390f35b61022a610af1565b60405161023791906114c6565b60405180910390f35b610248610b17565b6040516102559190611629565b60405180910390f35b610278600480360361027391908101906111d3565b610b1d565b604051610288949392919061155b565b60405180910390f35b6102ab60048036036102a691908101906111fc565b610c12565b005b6102b5610e00565b005b60018060028111156102c557fe5b600860009054906101000a900460ff1660028111156102e057fe5b14610320576040517f08c379a0000000000000000000000000000000000000000000000000000000008152600401610317906115c9565b60405180910390fd5b6000600160003373ffffffffffffffffffffffffffffffffffffffff1673ffffffffffffffffffffffffffffffffffffffff168152602001908152602001600020600001805460018160011615610100020316600290049050141580156103d45750600160003373ffffffffffffffffffffffffffffffffffffffff1673ffffffffffffffffffffffffffffffffffffffff16815260200190815260200160002060010160149054906101000a900460ff16155b610413576040517f08c379a000000000000000000000000000000000000000000000000000000000815260040161040a90611609565b60405180910390fd5b60018060003373ffffffffffffffffffffffffffffffffffffffff1673ffffffffffffffffffffffffffffffffffffffff16815260200190815260200160002060010160146101000a81548160ff02191690831515021790555081600160003373ffffffffffffffffffffffffffffffffffffffff1673ffffffffffffffffffffffffffffffffffffffff168152602001908152602001600020600201819055506000821180156104c657506002548211155b156104f157600080838152602001908152602001600020600201600081548092919060010191905055505b6004600081548092919060010191905055507f55c65cf9526efdf6c2252fe9757889dbd93e10172cad0f2edb1df619c88dbf7d3360405161053291906114e1565b60405180910390a15050565b60098054600181600116156101000203166002900480601f0160208091040260200160405190810160405280929190818152602001828054600181600116156101000203166002900480156105d45780601f106105a9576101008083540402835291602001916105d4565b820191906000526020600020905b8154815290600101906020018083116105b757829003601f168201915b505050505081565b600860009054906101000a900460ff1681565b60025481565b6000602052806000526040600020600091509050806000015490806001018054600181600116156101000203166002900480601f0160208091040260200160405190810160405280929190818152602001828054600181600116156101000203166002900480156106a75780601f1061067c576101008083540402835291602001916106a7565b820191906000526020600020905b81548152906001019060200180831161068a57829003601f168201915b5050505050908060020154905083565b60008060028111156106c557fe5b600860009054906101000a900460ff1660028111156106e057fe5b14610720576040517f08c379a0000000000000000000000000000000000000000000000000000000008152600401610717906115c9565b60405180910390fd5b600560009054906101000a900473ffffffffffffffffffffffffffffffffffffffff1673ffffffffffffffffffffffffffffffffffffffff163373ffffffffffffffffffffffffffffffffffffffff16146107b0576040517f08c379a00000000000000000000000000000000000000000000000000000000081526004016107a7906115e9565b60405180910390fd5b600260008154809291906001019190505550604051806060016040528060025481526020018381526020016000815250600080600254815260200190815260200160002060008201518160000155602082015181600101908051906020019061081a929190610fe9565b50604082015181600201559050507f1a988ca577cdc159fc214387856e8cfb16754d59464ba15a6fb93f6ec30c9a7a826040516108579190611539565b60405180910390a15050565b60078054600181600116156101000203166002900480601f0160208091040260200160405190810160405280929190818152602001828054600181600116156101000203166002900480156108f95780601f106108ce576101008083540402835291602001916108f9565b820191906000526020600020905b8154815290600101906020018083116108dc57829003601f168201915b505050505081565b600080600281111561090f57fe5b600860009054906101000a900460ff16600281111561092a57fe5b1461096a576040517f08c379a0000000000000000000000000000000000000000000000000000000008152600401610961906115c9565b60405180910390fd5b600560009054906101000a900473ffffffffffffffffffffffffffffffffffffffff1673ffffffffffffffffffffffffffffffffffffffff163373ffffffffffffffffffffffffffffffffffffffff16146109fa576040517f08c379a00000000000000000000000000000000000000000000000000000000081526004016109f1906115e9565b60405180910390fd5b6001600860006101000a81548160ff02191690836002811115610a1957fe5b02179055507fd0dc01800a369fef30d3fced5275b8b916549867622e79efca5245c479fda4ea60405160405180910390a150565b60035481565b60068054600181600116156101000203166002900480601f016020809104026020016040519081016040528092919081815260200182805460018160011615610100020316600290048015610ae95780601f10610abe57610100808354040283529160200191610ae9565b820191906000526020600020905b815481529060010190602001808311610acc57829003601f168201915b505050505081565b600560009054906101000a900473ffffffffffffffffffffffffffffffffffffffff1681565b60045481565b6001602052806000526040600020600091509050806000018054600181600116156101000203166002900480601f016020809104026020016040519081016040528092919081815260200182805460018160011615610100020316600290048015610bc95780601f10610b9e57610100808354040283529160200191610bc9565b820191906000526020600020905b815481529060010190602001808311610bac57829003601f168201915b5050505050908060010160009054906101000a900473ffffffffffffffffffffffffffffffffffffffff16908060010160149054906101000a900460ff16908060020154905084565b6000806002811115610c2057fe5b600860009054906101000a900460ff166002811115610c3b57fe5b14610c7b576040517f08c379a0000000000000000000000000000000000000000000000000000000008152600401610c72906115c9565b60405180910390fd5b610c83611069565b82816000018190525083816020019073ffffffffffffffffffffffffffffffffffffffff16908173ffffffffffffffffffffffffffffffffffffffff16815250506000816040019015159081151581525050600081606001818152505080600160008673ffffffffffffffffffffffffffffffffffffffff1673ffffffffffffffffffffffffffffffffffffffff1681526020019081526020016000206000820151816000019080519060200190610d3c929190610fe9565b5060208201518160010160006101000a81548173ffffffffffffffffffffffffffffffffffffffff021916908373ffffffffffffffffffffffffffffffffffffffff16021790555060408201518160010160146101000a81548160ff021916908315150217905550606082015181600201559050506003600081548092919060010191905055507f387e3d20b36ce3254acb134e913909d19062c2c475ffa1734569bc795869da1084604051610df291906114c6565b60405180910390a150505050565b6001806002811115610e0e57fe5b600860009054906101000a900460ff166002811115610e2957fe5b14610e69576040517f08c379a0000000000000000000000000000000000000000000000000000000008152600401610e60906115c9565b60405180910390fd5b600560009054906101000a900473ffffffffffffffffffffffffffffffffffffffff1673ffffffffffffffffffffffffffffffffffffffff163373ffffffffffffffffffffffffffffffffffffffff1614610ef9576040517f08c379a0000000000000000000000000000000000000000000000000000000008152600401610ef0906115e9565b60405180910390fd5b6002600860006101000a81548160ff02191690836002811115610f1857fe5b02179055506000600190505b6002548111610fad57600a54600080838152602001908152602001600020600201541115610fa05760008082815260200190815260200160002060020154600a8190555060008082815260200190815260200160002060010160099080546001816001161561010002031660029004610f9e9291906110a9565b505b8080600101915050610f24565b507f1c9db16d4f54d3a4e1f06123c554022a9f3f0357d24c7de3780857ddc4de92446009604051610fde91906115a7565b60405180910390a150565b828054600181600116156101000203166002900490600052602060002090601f016020900481019282601f1061102a57805160ff1916838001178555611058565b82800160010185558215611058579182015b8281111561105757825182559160200191906001019061103c565b5b5090506110659190611130565b5090565b604051806080016040528060608152602001600073ffffffffffffffffffffffffffffffffffffffff168152602001600015158152602001600081525090565b828054600181600116156101000203166002900490600052602060002090601f016020900481019282601f106110e2578054855561111f565b8280016001018555821561111f57600052602060002091601f016020900482015b8281111561111e578254825591600101919060010190611103565b5b50905061112c9190611130565b5090565b61115291905b8082111561114e576000816000905550600101611136565b5090565b90565b6000813590506111648161181a565b92915050565b600082601f83011261117b57600080fd5b813561118e611189826116af565b611682565b915080825260208301602083018583830111156111aa57600080fd5b6111b58382846117ba565b50505092915050565b6000813590506111cd81611831565b92915050565b6000602082840312156111e557600080fd5b60006111f384828501611155565b91505092915050565b6000806040838503121561120f57600080fd5b600061121d85828601611155565b925050602083013567ffffffffffffffff81111561123a57600080fd5b6112468582860161116a565b9150509250929050565b60006020828403121561126257600080fd5b600082013567ffffffffffffffff81111561127c57600080fd5b6112888482850161116a565b91505092915050565b6000602082840312156112a357600080fd5b60006112b1848285016111be565b91505092915050565b6112c381611772565b82525050565b6112d281611717565b82525050565b6112e181611729565b82525050565b6112f081611784565b82525050565b6000611301826116fb565b61130b8185611706565b935061131b8185602086016117c9565b611324816117fc565b840191505092915050565b600061133a826116f0565b6113448185611706565b93506113548185602086016117c9565b61135d816117fc565b840191505092915050565b60008154600181166000811461138557600181146113ab576113ef565b607f60028304166113968187611706565b955060ff1983168652602086019350506113ef565b600282046113b98187611706565b95506113c4856116db565b60005b828110156113e6578154818901526001820191506020810190506113c7565b80880195505050505b505092915050565b6000611404600e83611706565b91507f56616c69646174652073746174650000000000000000000000000000000000006000830152602082019050919050565b6000611444601583611706565b91507f4f6e6c79204f776e6572206861732061636365737300000000000000000000006000830152602082019050919050565b6000611484601883611706565b91507f4f6e6c79205265676973746572206861732061636365737300000000000000006000830152602082019050919050565b6114c081611768565b82525050565b60006020820190506114db60008301846112c9565b92915050565b60006020820190506114f660008301846112ba565b92915050565b600060208201905061151160008301846112e7565b92915050565b60006020820190508181036000830152611531818461132f565b905092915050565b6000602082019050818103600083015261155381846112f6565b905092915050565b60006080820190508181036000830152611575818761132f565b905061158460208301866112c9565b61159160408301856112d8565b61159e60608301846114b7565b95945050505050565b600060208201905081810360008301526115c18184611368565b905092915050565b600060208201905081810360008301526115e2816113f7565b9050919050565b6000602082019050818103600083015261160281611437565b9050919050565b6000602082019050818103600083015261162281611477565b9050919050565b600060208201905061163e60008301846114b7565b92915050565b600060608201905061165960008301866114b7565b818103602083015261166b818561132f565b905061167a60408301846114b7565b949350505050565b6000604051905081810181811067ffffffffffffffff821117156116a557600080fd5b8060405250919050565b600067ffffffffffffffff8211156116c657600080fd5b601f19601f8301169050602081019050919050565b60008190508160005260206000209050919050565b600081519050919050565b600081519050919050565b600082825260208201905092915050565b600061172282611748565b9050919050565b60008115159050919050565b60008190506117438261180d565b919050565b600073ffffffffffffffffffffffffffffffffffffffff82169050919050565b6000819050919050565b600061177d82611796565b9050919050565b600061178f82611735565b9050919050565b60006117a1826117a8565b9050919050565b60006117b382611748565b9050919050565b82818337600083830152505050565b60005b838110156117e75780820151818401526020810190506117cc565b838111156117f6576000848401525b50505050565b6000601f19601f8301169050919050565b6003811061181757fe5b50565b61182381611717565b811461182e57600080fd5b50565b61183a81611768565b811461184557600080fd5b5056fea365627a7a72315820575c11265fb7520a94234e61f4ee614ed07d3d63975c97da4b2b287ec2fb0c906c6578706572696d656e74616cf564736f6c63430005100040a365627a7a72315820c1d4d518a21bcea94f347b3b8aab04dd9204e717432c14e196da5d51f0cab68d6c6578706572696d656e74616cf564736f6c63430005100040",
  "source": "// SPDX-License-Identifier: MIT\npragma solidity >=0.4.21 <0.7.0;\npragma experimental ABIEncoderV2;\n\ncontract Factory {\n    Election[] public contractList;\n    uint256 public contractsCount = 0;\n\n    function addContract(string memory name, string memory description)\n        public\n    {\n        contractsCount++;\n        Election newContract = new Election(name, description);\n        contractList.push(newContract);\n    }\n\n    function getContractList() public view returns (Election[] memory){\n        return contractList;\n    }\n}\n\ncontract Election {\n    enum State {Created, Voting, Ended}\n    struct Candidate {\n        uint256 id;\n        string name;\n        uint256 voteCount;\n    }\n    // struct Vote {\n    //     address voterAddress;\n    //     uint256 choice;\n    // }\n    struct Voter {\n        string voterName;\n        address voterAddress;\n        bool voted;\n        uint256 choice;\n    }\n\n    // Store accounts that have voted\n    mapping(uint256 => Candidate) public candidates;\n    // mapping(uint256 => Vote) private votes;\n    mapping(address => Voter) public voterRegister;\n    uint256 public candidatesCount = 0;\n    uint256 public totalVoterCount = 0;\n    uint256 public totalVoteCount = 0;\n    address public electionOwnerAddress;\n    string public electionOfficialName;\n    string public electionDescription;\n    State public electionState;\n    string public finalWinner = \"qq\";\n    uint256 highest = 0;\n\n    //constructor\n    constructor(string memory name, string memory description) public {\n        // addCandidate(\"Trump\");\n        //addCandidate(\"Bidden\");\n        electionOwnerAddress = msg.sender;\n        electionOfficialName = name;\n        electionDescription = description;\n        electionState = State.Created;\n    }\n\n    modifier onlyOwner() {\n        require(msg.sender == electionOwnerAddress, \"Only Owner has access\");\n        _;\n    }\n    modifier inState(State st) {\n        require(electionState == st, \"Validate state\");\n        _;\n    }\n    modifier onlyRegister() {\n        require(\n            bytes(voterRegister[msg.sender].voterName).length != 0 &&\n            !voterRegister[msg.sender].voted, \"Only Register has access\");\n        _;\n    }\n\n    // event\n    //event votedEvent(uint256 indexed _candidateId);\n    event candidateAdded(string candidateName);\n    event voterRegistered(address voter);\n    event voteStarted();\n    event voteEnded(string finalWinner);\n    event voteDone(address voter);\n\n    function addCandidate(string memory candidateName)\n        public\n        inState(State.Created)\n        onlyOwner\n    {\n        candidatesCount++;\n        candidates[candidatesCount] = Candidate(\n            candidatesCount,\n            candidateName,\n            0\n        );\n\n        emit candidateAdded(candidateName);\n    }\n\n    function joinVote(address voterAddress, string memory voterName)\n        public\n        inState(State.Created)\n    {\n        Voter memory voter;\n        voter.voterName = voterName;\n        voter.voterAddress = voterAddress;\n        voter.voted = false;\n        voter.choice = 0;\n        voterRegister[voterAddress] = voter;\n        totalVoterCount++;\n        emit voterRegistered(voterAddress);\n    }\n\n    function startVote() public inState(State.Created) onlyOwner {\n        electionState = State.Voting;\n        emit voteStarted();\n    }\n\n    function doVote(uint256 candidateId)\n        public\n        inState(State.Voting)\n        onlyRegister\n    {\n        voterRegister[msg.sender].voted = true;\n        voterRegister[msg.sender].choice = candidateId;\n        if (candidateId > 0 && candidateId <= candidatesCount) {\n            candidates[candidateId].voteCount++;\n        }\n        totalVoteCount++;\n        emit voteDone(msg.sender);\n    }\n\n    function endVote() public inState(State.Voting) onlyOwner {\n        electionState = State.Ended;\n        for (uint256 i = 1; i <= candidatesCount; i++) {\n            if(candidates[i].voteCount > highest){\n                highest = candidates[i].voteCount;\n                finalWinner = candidates[i].name;\n            }\n        }\n        emit voteEnded(finalWinner);\n    }\n}\n",
  "sourcePath": "/home/ichi/Documents/development/smart-contract/voting-dapp/contracts/Election.sol",
  "compiler": {
    "name": "solc",
    "version": "0.5.16+commit.9c3226ce.Emscripten.clang"
  },
  "schemaVersion": "3.0.23",
  "updatedAt": "2020-06-27T08:59:22.586Z",
  "devdoc": {
    "methods": {}
  },
  "userdoc": {
    "methods": {}
  }
}